:0400000080313228F1
:100008007E1480314E010D1E0A280B2829285030F5
:100018007C020318102811281C287C08A03E8600A2
:1000280087014201190881000130F0007008FC07BF
:1000380042011D1D2028212823289D139D179D1C42
:100048002628272829281D121D164E018D1C2D280B
:100058002E2830288D100D117E100900803134288B
:10006800FC01A030840000308500503087319C2787
:1000780080317E1040018331272B400129088039C7
:10008800B3002935B900A81F4A284B284C28391431
:1000980039080319502851286028390A031D5528A2
:1000A80056285E280030A9000030A8000030A700BC
:1000B8000030A600A81768280030A9000030A80062
:1000C8000030A7000030A6002D088039AE002E08A9
:1000D800B3062D35B800AC1F72287328742838145D
:1000E80038080319782879288828380A031D7D28B4
:1000F8007E2886280030AD000030AC000030AB0010
:100108000030AA00AC1790280030AD000030AC00D9
:100118000030AB000030AA0038080319942895284D
:100128009A283908031D99289A28A3280030A9007D
:100138000030A8000030A7000030A6007B2A26085F
:10014800F1002C0886315D26803172084001BF001D
:100158007108BE003E08AE00AF01B001B101310820
:10016800B7003008B6002F08B5002E08B4003F08C5
:10017800AE00AF01B001B1013108BD003008BC00CC
:100188002F08BB002E08BA002708F1002B0886317B
:100198005D26803172084001BF007108BE003E082C
:1001A800AE00AF01B001B1012E08B4072F08B53D6C
:1001B8003008B63D3108B73D3F08AE00AF01B00189
:1001C800B1012E08BA072F08BB3D3008BC3D3108E5
:1001D800BD3D2808F1002A0886315D268031720865
:1001E8004001BF007108BE003E08AE00AF01B0017B
:1001F800B1012E08B4072F08B53D3008B63D3108C7
:10020800B73D3F08AE00AF01B001B1012E08BA07F3
:100218002F08BB3D3008BC3D3108BD3D0830B43522
:10022800B50DB60DB70D890B13292708F1002A085B
:1002380086315D26803172084001BF007108BE001A
:100248003E08B4073F08B53D0030B63DB73D260827
:10025800F1002B0886315D26803172084001BF000D
:100268007108BE003E08B4073F08B53D0030B63DF2
:10027800B73D0830B435B50DB60DB70D890B3E291D
:100288002608F1002A0886315D268031720840016F
:10029800BF007108BE003E08B4073F08B53D0030F6
:1002A800B63DB73D2708F1002C0886315D26803120
:1002B80072084001BF007108BE003E08BA073F0837
:1002C800BB3D0030BC3DBD3D2808F1002B08863100
:1002D8005D26803172084001BF007108BE003E08EB
:1002E800BA073F08BB3D0030BC3DBD3D2808F100C2
:1002F8002C0886315D26803172084001BF007108E4
:10030800BE003E08AE003F08AF00B001B1010830A2
:10031800AE35AF0DB00DB10D890B8C292E08BA077B
:100328002F08BB3D3008BC3D3108BD3D3408AE0048
:100338003508AF003608B0003708B1001830B136BC
:10034800B00CAF0CAE0C890BA3292E08BA072F08E6
:10035800BB3D3008BC3D3108BD3D0830B435B50D56
:10036800B60DB70D890BB22939083807AE00AF01B1
:10037800AF0D2E08823EBE00FF302F3DBF00DB29A7
:100388000130BA35BB0DBC0DBD0D890BC529B71F92
:10039800CE29CF29D0293A140130B435B50DB60D80
:1003A800B70D890BD129FF30BE07FF30BF3DBC1FF9
:1003B800DE29DF29C429B801B71FE329E429002A67
:1003C800FF303405AE00FF303505AF00FF3036058D
:1003D800B0007F303705B100310830042F042E04F7
:1003E8000319F729F829FB29B801B80A002A3A1C89
:1003F800FE29FF29002AF82938080319042A052AA2
:100408002D2A0130BA070030BB3D0030BC3D00301A
:10041800BD3D3D1C102A112A2D2A3A08AE003B0882
:10042800AF003C08B0003D08B1000130B200B13760
:10043800B00CAF0CAE0CB20B1B2A3108BD00300853
:10044800BC002F08BB002E08BA000130BE070030E0
:10045800BF3D3F08803AAE0080302E02031D362A89
:10046800FF303E02031C392A3A2A442A7F304001D1
:10047800BD008030BC000030BB000030BA006F2ADD
:1004880040013F08803AAE0080302E02031D4E2AFC
:1004980001303E020318512A522A5D2A00304001D9
:1004A800BD000030BC000030BB000030BA00B30112
:1004B8006F2A40013E08B900FF30BA05FF30BB057E
:1004C8007F30BC050030BD05391C6B2A6C2A6D2AAB
:1004D800BC173936BD003308AE002E08BD043D08F0
:1004E800A9003C08A8003B08A7003A08A600080095
:1004F8004001A00020080319822A832A972AF41FA2
:10050800862A872A972A7109A2007209A30073090B
:10051800A4007409A500A20A0319A30A0319A40ACE
:100528000319A50A9F2A7408A5007308A400720875
:10053800A3007108A2007408730472047104031DF7
:10054800A62AA72AB02A0030F4000030F3000030B1
:10055800F2000030F100262B9630A100BE2A0130AF
:10056800F5007508A1070130A536A40CA30CA20C50
:10057800890BB82AFE302505031DC32AC42AB32ACD
:10058800D82A0130F5007508A1070130A20700300C
:10059800A33D0030A43D0030A53D0130A536A40C94
:1005A800A30CA20C890BD22AFF302505031DDD2AD6
:1005B800DE2AC52AE82A0130A1020130A235A30D9E
:1005C800A40DA50D890BE22AA41BEB2AEC2AF22A1A
:1005D800023021020318F12AF22ADF2A2118F52A0B
:1005E800F62AFE2AFF30A205FF30A3057F30A405B6
:1005F800FF30A5050310A10C2108F500F601F7014D
:10060800F8011830F535F60DF70DF80D890B062BA6
:100618007508A2047608A3047708A4047808A5043A
:1006280020080319182B192B1E2BF41F1C2B1D2B0C
:100638001E2BA5172508F4002408F3002308F20050
:100648002208F10008000B178B17400192017E0168
:10065800B8018631B5268331710872040319352B28
:10066800362B482B303086313A2683310130400111
:10067800CF004F088C06A3304001CF005530890BBE
:10068800432BCF0B432B3A2B86318026833187317E
:10069800082783315030F100A0308631CB268331D2
:1006A80087311C27833102304001D0004530CF000C
:1006B800A930890B5D2BCF0B5D2BD00B5D2B003246
:1006C8008431F92483318731A22783314001D20153
:1006D8003530F8008730F9008631E02683318731DC
:1006E800B727833101304001CF004F08D2075208A5
:1006F80003197F2B802B6C2BD2015930F8008730DF
:10070800F9008631E02683318C304001A000873023
:10071800A100DA30A2008530A3001530A40084318E
:1007280098248331003A031D9A2B9B2BA22B40015E
:100738000C148431F924833140018C015530F800C0
:1007480053308531A325833184312E2483314001F0
:10075800D1005408A1005308A0005608A30055086A
:10076800A2005108A4008531762583316C2B803195
:10077800322803104001420D430DFB007B08031D86
:10078800C62BC72BD02B0030C3000030C20000306E
:10079800C1000030C0002D2C4008C4004108C5002D
:1007A8004208C6004308C7001F30C736C60CC50C30
:1007B800C40C890BD92B4408FA00C217FF30C005B6
:1007C800FF30C105FF30C2050030C3059630FB027B
:1007D800FB1FEF2BF02B082C7B08803A973E031861
:1007E800F62BF72BF82BC72B0130C336C20CC10CE4
:1007F800C00C890BF92B0130C4004408FB07031D0A
:10080800062C072CF82B1D2C20307B02031C0D2CEA
:100818000E2C182CC72B0130C035C10DC20DC30DCD
:10082800890B102C0130FB027B08031D1C2C1D2C8E
:100838000F2C7A080319212C222C2D2CC009C10950
:10084800C209C309C00A0319C10A0319C20A031954
:10085800C30A080087314D27843172084001C90056
:100868007108C8004808F1004908F200F301F401D2
:10087800003082317C22843174084001AD00730855
:10088800AC007208AB007108AA004030A9004E30D5
:10089800A8007330A7009D30A60080314120843124
:1008A80040012908C3002808C2002708C1002608FB
:1008B800C0008331BD23843140014108CB0040088A
:1008C800CA004A35CC004B0DCD004C08F1004D084C
:1008D800F200F301F401003082317C228431740883
:1008E8004001AD007308AC007208AB007108AA00A3
:1008F8003C30A9008830A8008830A7008930A600BD
:1009080080314120843140012908C3002808C200F1
:100918002708C1002608C0008331BD238431400167
:100928004008CE004E0808005030F100A030863153
:10093800CB268431FC01A22C420119084E010D1A64
:10094800A62CA72CA02C42011D121D164E0117160D
:1009580040012108F3002008F2008531F025843198
:100968000A3087317A27843140012408023EF80092
:10097800003003180130F9007908803A803C031DE3
:10098800C72C78087C02031CCA2CCB2CB82CFA3054
:100998000032890BCC2C4E011712FB01F02C2308D6
:1009A800F9002208F8007B08780784007908031802
:1009B800790A85000008FA007B08A03E86008701B6
:1009C80001087A060319E92CEA2CEC2C0030F82CE3
:1009D8000130F8007808FB07400124087B02031C5B
:1009E800F62CF72CD32C013008005930F80087304A
:1009F800F9008631E0268431B4304001A000873008
:100A0800A1008430A2008730A3000730A4008431FD
:100A180098248431003A031D122D132D1A2D6F309E
:100A2800F2008730F3008531F02584312D2D400107
:100A3800A7011A304001A6005E30A5006E30890B70
:100A4800232DA50B232DA60B232D000001304001DB
:100A5800A7028C304001A0008730A100DA30A20044
:100A68008530A3001530A400843198248431003ADD
:100A780003193F2D402D1B2D2930F2008730F3003C
:100A88008531F02584310800F7008731AE2785319C
:100A98007735FE39F7007708013887319427853193
:100AA800F501F601652D75087207F40074088600D3
:100AB800870186319D26853181000130F507003098
:100AC800F63D7608803AF40080307402031D6E2DDE
:100AD80073087502031C712D722D572D8731A827B5
:100AE800853108006430F2008730F3008531F02545
:100AF80085314001200886311626853140012108BC
:100B08008631162685314001220886311626853120
:100B18004001230886311626853140012408863194
:100B2800162685310A3087317A2785310730F80053
:100B38007D30890B9D2DF80B9D2D0000080040018C
:100B4800A600FD30F20046308631F42685310430A7
:100B5800F9003E30890BAE2DF90BAE2D2030F20096
:100B68000630F30046308531482585314001260896
:100B7800860087012108C03F2008C13F7808860009
:100B880087012408C03F2308C13F080030343134AE
:100B98003234333434343534363437343834393401
:100BA8004134423443344434453446342B344A3493
:100BB8004F3449344E343A3420344A346F3469342B
:100BC8006E3465346434203461346C347234653482
:100BD8006134643479340034F701052E7308F50064
:100BE8007208F40077087407840075080318750AFA
:100BF8008500000887317A2785310130F4007408B0
:100C0800F7077308F5007208F40077087407840082
:100C180075080318750A85001200031D142E152E79
:100C2800F22D0800F3007308F2000430F236890B45
:100C38001A2E72080F39F4007408CA3E84008530F1
:100C48000318013E8500000887317A27863173082A
:100C58000F39F4007408CA3E840085300318013E39
:100C68008500000887317A2786310800F1004001A5
:100C7800921412157E01BA143A1507309100083003
:100C8800920001307D01C5000230C60043018F1774
:100C98001008F039063890001114121571088D00EB
:100CA80090164E010D118D10171597140B178B17F1
:100CB8000800F900F501F6017108F300F401730862
:100CC800F7007408F800791C6A2E6B2E6F2E7708CF
:100CD800F5077808F63D0130F735F80D890B702EC9
:100CE8000310F90C7908031D7A2E7B2E672E7608DF
:100CF800F2007508F100080040019214121507303F
:100D08007E0191000830920001307D01C50002305B
:100D1800C60043018F171008F03908389000910178
:100D280003308D0090164E010D118D101715971474
:100D380008008731412786314301911587314127C2
:100D480086314E018D18A92EAA2EA52E43010C0816
:100D5800F10087314127863143019112111671083C
:100D680008004001921412118C18BB2EBC2EC82EFC
:100D78000C11BF2E0C158C1CC22EC32EBE2E01309A
:100D8800F1000030F200CA2EF101F2010800F30070
:100D9800F401D92E74087307F200720886008701DF
:100DA80081010130F2007208F40771087402031C13
:100DB800DE2EDF2ECE2E08007908F3007808F20028
:100DC8008531F02586310A3087317A278631073018
:100DD800FA007D30890BEE2EFA0BEE2E000008008B
:100DE800F3008731AE2786317335FE39F300730877
:100DF800FE398731942786317208873194278631E6
:100E08008731A8278631080042019F151E129E16B9
:100E18001E151D169D1719309B009C0105307E017B
:100E2800950004307D01CB00400192121216080093
:100E3800400112147E013814033041019D05FC3035
:100E48009E058F309E059E17080043346F346E341C
:100E58006E34653463347434653464342034213436
:100E68000034413454342B344C344F3457345034D8
:100E78004F34573445345234003443010F19452F49
:100E8800462F412F11081139031D4B2F4C2F412F8D
:100E9800080041011D149D149D18532F542F502FE5
:100EA8001C08F2001B08F1000800573461346B3449
:100EB80065342034753470342034213421340034BE
:100EC800413454342B344D34533447344834453446
:100ED80058343D340034523458342F345434583450
:100EE80020344634613469346C340034F1004E01E6
:100EF8008D1D7F2F802F7B2F710842019A000800DB
:100F08002B34413454343A3420344F344B34003485
:100F1800413454342B344A344F3449344E34003439
:100F2800F100873141278731710843018C0008009F
:100F3800640080010131890B9D2F003450010C0899
:100F4800C13920388C000800873141278731430197
:100F58001115080087314127873143011114080012
:0C0F68004134543400346400630008007D
:020000040001F9
:08000000FF3FFF3FFF3FFF3F00
:0A000E00ED3FFF3FFF3FFF3FFF3FC4
:00000001FF
